{
  "contractName": "Campaign",
  "abi": [
    {
      "inputs": [
        {
          "internalType": "uint256",
          "name": "minimum",
          "type": "uint256"
        },
        {
          "internalType": "address payable",
          "name": "creator",
          "type": "address"
        }
      ],
      "stateMutability": "nonpayable",
      "type": "constructor"
    },
    {
      "inputs": [
        {
          "internalType": "address",
          "name": "",
          "type": "address"
        }
      ],
      "name": "approvers",
      "outputs": [
        {
          "internalType": "bool",
          "name": "",
          "type": "bool"
        }
      ],
      "stateMutability": "view",
      "type": "function"
    },
    {
      "inputs": [],
      "name": "approversCount",
      "outputs": [
        {
          "internalType": "uint256",
          "name": "",
          "type": "uint256"
        }
      ],
      "stateMutability": "view",
      "type": "function"
    },
    {
      "inputs": [],
      "name": "manager",
      "outputs": [
        {
          "internalType": "address payable",
          "name": "",
          "type": "address"
        }
      ],
      "stateMutability": "view",
      "type": "function"
    },
    {
      "inputs": [],
      "name": "minimumContribution",
      "outputs": [
        {
          "internalType": "uint256",
          "name": "",
          "type": "uint256"
        }
      ],
      "stateMutability": "view",
      "type": "function"
    },
    {
      "inputs": [
        {
          "internalType": "uint256",
          "name": "",
          "type": "uint256"
        }
      ],
      "name": "requests",
      "outputs": [
        {
          "internalType": "string",
          "name": "description",
          "type": "string"
        },
        {
          "internalType": "uint256",
          "name": "value",
          "type": "uint256"
        },
        {
          "internalType": "address payable",
          "name": "recipient",
          "type": "address"
        },
        {
          "internalType": "bool",
          "name": "complete",
          "type": "bool"
        },
        {
          "internalType": "uint256",
          "name": "approvalCount",
          "type": "uint256"
        }
      ],
      "stateMutability": "view",
      "type": "function"
    },
    {
      "inputs": [],
      "name": "contribute",
      "outputs": [],
      "stateMutability": "payable",
      "type": "function"
    },
    {
      "inputs": [
        {
          "internalType": "string",
          "name": "description",
          "type": "string"
        },
        {
          "internalType": "uint256",
          "name": "value",
          "type": "uint256"
        },
        {
          "internalType": "address payable",
          "name": "recipient",
          "type": "address"
        }
      ],
      "name": "createRequest",
      "outputs": [],
      "stateMutability": "nonpayable",
      "type": "function"
    },
    {
      "inputs": [
        {
          "internalType": "uint256",
          "name": "index",
          "type": "uint256"
        }
      ],
      "name": "approveRequest",
      "outputs": [],
      "stateMutability": "nonpayable",
      "type": "function"
    },
    {
      "inputs": [
        {
          "internalType": "uint256",
          "name": "index",
          "type": "uint256"
        }
      ],
      "name": "finaliseRequest",
      "outputs": [],
      "stateMutability": "nonpayable",
      "type": "function"
    },
    {
      "inputs": [],
      "name": "getSummary",
      "outputs": [
        {
          "internalType": "uint256",
          "name": "",
          "type": "uint256"
        },
        {
          "internalType": "uint256",
          "name": "",
          "type": "uint256"
        },
        {
          "internalType": "uint256",
          "name": "",
          "type": "uint256"
        },
        {
          "internalType": "uint256",
          "name": "",
          "type": "uint256"
        },
        {
          "internalType": "address",
          "name": "",
          "type": "address"
        }
      ],
      "stateMutability": "view",
      "type": "function"
    },
    {
      "inputs": [],
      "name": "getRequestsCount",
      "outputs": [
        {
          "internalType": "uint256",
          "name": "",
          "type": "uint256"
        }
      ],
      "stateMutability": "view",
      "type": "function"
    }
  ],
  "bytecode": "0x608060405234801561001057600080fd5b50604051610d0b380380610d0b8339818101604052604081101561003357600080fd5b81019080805190602001909291908051906020019092919050505080600160006101000a81548173ffffffffffffffffffffffffffffffffffffffff021916908373ffffffffffffffffffffffffffffffffffffffff160217905550816002819055505050610c64806100a76000396000f3fe60806040526004361061009c5760003560e01c806382fde0931161006457806382fde093146102ff5780638a9cfd551461032a578063937e09b11461041c578063d7bb99ba14610447578063d7d1bbdb14610451578063e7b668b41461048c5761009c565b80630a144391146100a15780633410452a1461010a5780634051ddac14610135578063481c6a75146101a857806381d12c58146101ff575b600080fd5b3480156100ad57600080fd5b506100f0600480360360208110156100c457600080fd5b81019080803573ffffffffffffffffffffffffffffffffffffffff1690602001909291905050506104c7565b604051808215151515815260200191505060405180910390f35b34801561011657600080fd5b5061011f6104e7565b6040518082815260200191505060405180910390f35b34801561014157600080fd5b5061014a6104f3565b604051808681526020018581526020018481526020018381526020018273ffffffffffffffffffffffffffffffffffffffff1673ffffffffffffffffffffffffffffffffffffffff1681526020019550505050505060405180910390f35b3480156101b457600080fd5b506101bd61053f565b604051808273ffffffffffffffffffffffffffffffffffffffff1673ffffffffffffffffffffffffffffffffffffffff16815260200191505060405180910390f35b34801561020b57600080fd5b506102386004803603602081101561022257600080fd5b8101908080359060200190929190505050610565565b60405180806020018681526020018573ffffffffffffffffffffffffffffffffffffffff1673ffffffffffffffffffffffffffffffffffffffff16815260200184151515158152602001838152602001828103825287818151815260200191508051906020019080838360005b838110156102c05780820151818401526020810190506102a5565b50505050905090810190601f1680156102ed5780820380516001836020036101000a031916815260200191505b50965050505050505060405180910390f35b34801561030b57600080fd5b5061031461066d565b6040518082815260200191505060405180910390f35b34801561033657600080fd5b5061041a6004803603606081101561034d57600080fd5b810190808035906020019064010000000081111561036a57600080fd5b82018360208201111561037c57600080fd5b8035906020019184600183028401116401000000008311171561039e57600080fd5b91908080601f016020809104026020016040519081016040528093929190818152602001838380828437600081840152601f19601f82011690508083019250505050505050919291929080359060200190929190803573ffffffffffffffffffffffffffffffffffffffff169060200190929190505050610673565b005b34801561042857600080fd5b506104316107f1565b6040518082815260200191505060405180910390f35b61044f6107f7565b005b34801561045d57600080fd5b5061048a6004803603602081101561047457600080fd5b81019080803590602001909291905050506108c3565b005b34801561049857600080fd5b506104c5600480360360208110156104af57600080fd5b8101908080359060200190929190505050610a02565b005b60036020528060005260406000206000915054906101000a900460ff1681565b60008080549050905090565b600080600080600060025447600080549050600454600160009054906101000a900473ffffffffffffffffffffffffffffffffffffffff16809050945094509450945094509091929394565b600160009054906101000a900473ffffffffffffffffffffffffffffffffffffffff1681565b6000818154811061057257fe5b9060005260206000209060050201600091509050806000018054600181600116156101000203166002900480601f01602080910402602001604051908101604052809291908181526020018280546001816001161561010002031660029004801561061e5780601f106105f35761010080835404028352916020019161061e565b820191906000526020600020905b81548152906001019060200180831161060157829003601f168201915b5050505050908060010154908060020160009054906101000a900473ffffffffffffffffffffffffffffffffffffffff16908060020160149054906101000a900460ff16908060030154905085565b60045481565b600160009054906101000a900473ffffffffffffffffffffffffffffffffffffffff1673ffffffffffffffffffffffffffffffffffffffff163373ffffffffffffffffffffffffffffffffffffffff16146106cd57600080fd5b478211156106da57600080fd5b6106e2610b42565b6040518060a001604052808581526020018481526020018373ffffffffffffffffffffffffffffffffffffffff168152602001600015158152602001600081525090506000819080600181540180825580915050600190039060005260206000209060050201600090919091909150600082015181600001908051906020019061076d929190610b89565b506020820151816001015560408201518160020160006101000a81548173ffffffffffffffffffffffffffffffffffffffff021916908373ffffffffffffffffffffffffffffffffffffffff16021790555060608201518160020160146101000a81548160ff02191690831515021790555060808201518160030155505050505050565b60025481565b600254341161080557600080fd5b600360003373ffffffffffffffffffffffffffffffffffffffff1673ffffffffffffffffffffffffffffffffffffffff16815260200190815260200160002060009054906101000a900460ff16610869576004600081548092919060010191905055505b6001600360003373ffffffffffffffffffffffffffffffffffffffff1673ffffffffffffffffffffffffffffffffffffffff16815260200190815260200160002060006101000a81548160ff021916908315150217905550565b60008082815481106108d157fe5b90600052602060002090600502019050600360003373ffffffffffffffffffffffffffffffffffffffff1673ffffffffffffffffffffffffffffffffffffffff16815260200190815260200160002060009054906101000a900460ff1661093757600080fd5b8060040160003373ffffffffffffffffffffffffffffffffffffffff1673ffffffffffffffffffffffffffffffffffffffff16815260200190815260200160002060009054906101000a900460ff161561099057600080fd5b60018160040160003373ffffffffffffffffffffffffffffffffffffffff1673ffffffffffffffffffffffffffffffffffffffff16815260200190815260200160002060006101000a81548160ff02191690831515021790555080600301600081548092919060010191905055505050565b600160009054906101000a900473ffffffffffffffffffffffffffffffffffffffff1673ffffffffffffffffffffffffffffffffffffffff163373ffffffffffffffffffffffffffffffffffffffff1614610a5c57600080fd5b6000808281548110610a6a57fe5b90600052602060002090600502019050600260045481610a8657fe5b04816003015411610a9657600080fd5b8060020160149054906101000a900460ff1615610ab257600080fd5b60018160020160146101000a81548160ff0219169083151502179055508060020160009054906101000a900473ffffffffffffffffffffffffffffffffffffffff1673ffffffffffffffffffffffffffffffffffffffff166108fc82600101549081150290604051600060405180830381858888f19350505050158015610b3d573d6000803e3d6000fd5b505050565b6040518060a001604052806060815260200160008152602001600073ffffffffffffffffffffffffffffffffffffffff168152602001600015158152602001600081525090565b828054600181600116156101000203166002900490600052602060002090601f016020900481019282601f10610bca57805160ff1916838001178555610bf8565b82800160010185558215610bf8579182015b82811115610bf7578251825591602001919060010190610bdc565b5b509050610c059190610c09565b5090565b610c2b91905b80821115610c27576000816000905550600101610c0f565b5090565b9056fea264697066735822122068b355462226de641c6796d762b553205c82fbd9e835043fd72c999e1b1b72d864736f6c63430006060033",
  "immutableReferences": {},
  "source": "// SPDX-License-Identifier: GPL-3.0\npragma solidity ^0.6.5;\n\n/// Creating a new 'Kickstarter' style smart-contract model\n\ncontract Campaign {\n    struct Request {\n        string description;\n        uint value;\n        address payable recipient;\n        bool complete;\n        uint approvalCount;\n        mapping(address=>bool) approvals;\n    }\n    \n    Request[] public requests; // List of requests the manager has created\n    address payable public manager;\n    uint public minimumContribution;\n    // address[] public approvers; arrays aren't scalable - use mappings for O(1) lookups. Mappings need to be initialised to return an undefined value though\n    mapping (address=>bool) public approvers;\n    uint public approversCount;\n    \n    modifier restricted() {\n        require(msg.sender == manager);\n        _;\n    }\n    \n    constructor (uint minimum, address payable creator) public {\n        manager = creator;\n        minimumContribution = minimum;\n    }\n    \n    // Called when someone wants to donate money to the campaign and become an 'approver'\n    function contribute() public payable {\n        require(msg.value > minimumContribution);\n        \n        if(!approvers[msg.sender]) {\n          approversCount ++;\n          //approvers[msg.sender] = true; //should be here I think\n        }\n        approvers[msg.sender] = true; //only the value true gets stored inside the mapping - not the address\n    }\n    \n    // Called by the manager to create a new 'spending' request\n    function createRequest(string memory description, uint value, address payable recipient) public restricted {\n        // Ensure we can't ask for more money than the contract holds\n        require(value <= address(this).balance);\n        // require(approvers[msg.sender]); //to ensure the user is approved - not needed here\n        //memory is like a c++ reference pointer to original stored memory address we initialised - as opposed to storage which is a copy of the original (which we'd pass not refer to). \n        Request memory newRequest = Request({\n            description: description,\n            value: value,\n            recipient: recipient,\n            complete: false,\n            approvalCount: 0\n        });\n        //NB: since mapping is a reference type, we do not need to initialise this\n        \n        //Request(description, value, recipient, false); // relies on the variables being passed in CORRECT ORDER though\n        \n        requests.push(newRequest);\n    }\n    \n    // Called by each contributor to approve a spending request (voting)\n    function approveRequest(uint index) public {\n        // storage keyword as we're making a mutable copy of requests\n        Request storage request = requests[index];\n        \n        //make sure person is approved\n        require(approvers[msg.sender]);\n        //make sure this person has not already voted\n        require(!request.approvals[msg.sender]);\n        //mark this person as having voted\n        request.approvals[msg.sender] = true;\n        //increment voting count\n        request.approvalCount++;\n    }\n    \n    // After a request has gotten enough approvals, the manager can call this to get money sent to the vendor\n    function finaliseRequest(uint index) public restricted {\n        Request storage request = requests[index];\n        \n        require(request.approvalCount > (approversCount/2));\n        require(!request.complete);\n        \n        request.complete = true;\n        request.recipient.transfer(request.value);\n    }\n\n    //get a summary of the stats of a campaign (balance, contribution, manager etc )\n    function getSummary() public view returns (uint, uint, uint, uint, address) {\n        return (minimumContribution, address(this).balance, requests.length, approversCount, manager);\n    }\n\n    function getRequestsCount() public view returns (uint) {\n        return requests.length;\n    }\n}\n",
  "sourcePath": "/Users/alisonhaire/Desktop/Blockchain/Stephen Grider/solidity-react-campaign/contracts/Campaign.sol",
  "compiler": {
    "name": "solc",
    "version": "0.6.6+commit.6c089d02.Emscripten.clang"
  },
  "schemaVersion": "3.4.1",
  "updatedAt": "2021-07-03T15:59:58.378Z",
  "networkType": "ethereum",
  "devdoc": {
    "methods": {}
  },
  "userdoc": {
    "methods": {},
    "notice": "Creating a new 'Kickstarter' style smart-contract model"
  }
}